{
  "_format": "hh-sol-artifact-1",
  "contractName": "User",
  "sourceName": "contracts/User.sol",
  "abi": [
    {
      "anonymous": false,
      "inputs": [
        {
          "indexed": true,
          "internalType": "address",
          "name": "follower",
          "type": "address"
        },
        {
          "indexed": true,
          "internalType": "address",
          "name": "following",
          "type": "address"
        }
      ],
      "name": "UserFollowed",
      "type": "event"
    },
    {
      "anonymous": false,
      "inputs": [
        {
          "indexed": true,
          "internalType": "address",
          "name": "user",
          "type": "address"
        },
        {
          "indexed": false,
          "internalType": "string",
          "name": "bio",
          "type": "string"
        },
        {
          "indexed": false,
          "internalType": "string",
          "name": "profileImageHash",
          "type": "string"
        }
      ],
      "name": "UserProfileUpdated",
      "type": "event"
    },
    {
      "anonymous": false,
      "inputs": [
        {
          "indexed": true,
          "internalType": "address",
          "name": "user",
          "type": "address"
        },
        {
          "indexed": false,
          "internalType": "string",
          "name": "username",
          "type": "string"
        }
      ],
      "name": "UserRegistered",
      "type": "event"
    },
    {
      "anonymous": false,
      "inputs": [
        {
          "indexed": true,
          "internalType": "address",
          "name": "follower",
          "type": "address"
        },
        {
          "indexed": true,
          "internalType": "address",
          "name": "unfollowing",
          "type": "address"
        }
      ],
      "name": "UserUnfollowed",
      "type": "event"
    },
    {
      "inputs": [
        {
          "internalType": "address",
          "name": "_following",
          "type": "address"
        }
      ],
      "name": "followUser",
      "outputs": [],
      "stateMutability": "nonpayable",
      "type": "function"
    },
    {
      "inputs": [
        {
          "internalType": "string",
          "name": "_username",
          "type": "string"
        }
      ],
      "name": "registerUser",
      "outputs": [],
      "stateMutability": "nonpayable",
      "type": "function"
    },
    {
      "inputs": [
        {
          "internalType": "address",
          "name": "_unfollowing",
          "type": "address"
        }
      ],
      "name": "unfollowUser",
      "outputs": [],
      "stateMutability": "nonpayable",
      "type": "function"
    },
    {
      "inputs": [
        {
          "internalType": "string",
          "name": "_bio",
          "type": "string"
        },
        {
          "internalType": "string",
          "name": "_profileImageHash",
          "type": "string"
        }
      ],
      "name": "updateProfile",
      "outputs": [],
      "stateMutability": "nonpayable",
      "type": "function"
    },
    {
      "inputs": [
        {
          "internalType": "address",
          "name": "",
          "type": "address"
        }
      ],
      "name": "users",
      "outputs": [
        {
          "internalType": "string",
          "name": "username",
          "type": "string"
        },
        {
          "internalType": "string",
          "name": "bio",
          "type": "string"
        },
        {
          "internalType": "string",
          "name": "profileImageHash",
          "type": "string"
        }
      ],
      "stateMutability": "view",
      "type": "function"
    }
  ],
  "bytecode": "0x608060405234801561001057600080fd5b506113cd806100206000396000f3fe608060405234801561001057600080fd5b50600436106100575760003560e01c8063704f1b941461005c578063a70806f714610078578063a87430ba14610094578063c9d3cc6a146100c6578063f107cfcb146100e2575b600080fd5b61007660048036038101906100719190610c3a565b6100fe565b005b610092600480360381019061008d9190610ce1565b610269565b005b6100ae60048036038101906100a99190610ce1565b610478565b6040516100bd93929190610d8d565b60405180910390f35b6100e060048036038101906100db9190610dd9565b61063a565b005b6100fc60048036038101906100f79190610ce1565b6106f5565b005b6000815111610142576040517f08c379a000000000000000000000000000000000000000000000000000000000815260040161013990610e9d565b60405180910390fd5b60008060003373ffffffffffffffffffffffffffffffffffffffff1673ffffffffffffffffffffffffffffffffffffffff16815260200190815260200160002060030180549050146101c9576040517f08c379a00000000000000000000000000000000000000000000000000000000081526004016101c090610f09565b60405180910390fd5b806000803373ffffffffffffffffffffffffffffffffffffffff1673ffffffffffffffffffffffffffffffffffffffff1681526020019081526020016000206000019081610217919061113f565b503373ffffffffffffffffffffffffffffffffffffffff167f48cac28ad4dc618e15f4c2dd5e97751182f166de97b25618318b2112aa951a2f8260405161025e9190611211565b60405180910390a250565b3373ffffffffffffffffffffffffffffffffffffffff168173ffffffffffffffffffffffffffffffffffffffff16036102d7576040517f08c379a00000000000000000000000000000000000000000000000000000000081526004016102ce9061127f565b60405180910390fd5b6000803373ffffffffffffffffffffffffffffffffffffffff1673ffffffffffffffffffffffffffffffffffffffff168152602001908152602001600020600401819080600181540180825580915050600190039060005260206000200160009091909190916101000a81548173ffffffffffffffffffffffffffffffffffffffff021916908373ffffffffffffffffffffffffffffffffffffffff1602179055506000808273ffffffffffffffffffffffffffffffffffffffff1673ffffffffffffffffffffffffffffffffffffffff168152602001908152602001600020600301339080600181540180825580915050600190039060005260206000200160009091909190916101000a81548173ffffffffffffffffffffffffffffffffffffffff021916908373ffffffffffffffffffffffffffffffffffffffff1602179055508073ffffffffffffffffffffffffffffffffffffffff163373ffffffffffffffffffffffffffffffffffffffff167f30b3435b456f45779984ddfa456115ee4c20d9e446979b1b9e90dbb7e12b90b760405160405180910390a350565b600060205280600052604060002060009150905080600001805461049b90610f58565b80601f01602080910402602001604051908101604052809291908181526020018280546104c790610f58565b80156105145780601f106104e957610100808354040283529160200191610514565b820191906000526020600020905b8154815290600101906020018083116104f757829003601f168201915b50505050509080600101805461052990610f58565b80601f016020809104026020016040519081016040528092919081815260200182805461055590610f58565b80156105a25780601f10610577576101008083540402835291602001916105a2565b820191906000526020600020905b81548152906001019060200180831161058557829003601f168201915b5050505050908060020180546105b790610f58565b80601f01602080910402602001604051908101604052809291908181526020018280546105e390610f58565b80156106305780601f1061060557610100808354040283529160200191610630565b820191906000526020600020905b81548152906001019060200180831161061357829003601f168201915b5050505050905083565b60008060003373ffffffffffffffffffffffffffffffffffffffff1673ffffffffffffffffffffffffffffffffffffffff16815260200190815260200160002090508281600101908161068d919061113f565b508181600201908161069f919061113f565b503373ffffffffffffffffffffffffffffffffffffffff167fc13dafd9d9a1258e2f2de748cef0b799dbcc614ed620f5b0564ae615a759795c84846040516106e892919061129f565b60405180910390a2505050565b60008060003373ffffffffffffffffffffffffffffffffffffffff1673ffffffffffffffffffffffffffffffffffffffff168152602001908152602001600020600401905060008060008473ffffffffffffffffffffffffffffffffffffffff1673ffffffffffffffffffffffffffffffffffffffff168152602001908152602001600020600301905060005b82805490508110156108ff578373ffffffffffffffffffffffffffffffffffffffff168382815481106107b8576107b76112d6565b5b9060005260206000200160009054906101000a900473ffffffffffffffffffffffffffffffffffffffff1673ffffffffffffffffffffffffffffffffffffffff16036108f25782600184805490506108109190611334565b81548110610821576108206112d6565b5b9060005260206000200160009054906101000a900473ffffffffffffffffffffffffffffffffffffffff1683828154811061085f5761085e6112d6565b5b9060005260206000200160006101000a81548173ffffffffffffffffffffffffffffffffffffffff021916908373ffffffffffffffffffffffffffffffffffffffff160217905550828054806108b8576108b7611368565b5b6001900381819060005260206000200160006101000a81549073ffffffffffffffffffffffffffffffffffffffff021916905590556108ff565b8080600101915050610782565b5060005b8180549050811015610a80573373ffffffffffffffffffffffffffffffffffffffff16828281548110610939576109386112d6565b5b9060005260206000200160009054906101000a900473ffffffffffffffffffffffffffffffffffffffff1673ffffffffffffffffffffffffffffffffffffffff1603610a735781600183805490506109919190611334565b815481106109a2576109a16112d6565b5b9060005260206000200160009054906101000a900473ffffffffffffffffffffffffffffffffffffffff168282815481106109e0576109df6112d6565b5b9060005260206000200160006101000a81548173ffffffffffffffffffffffffffffffffffffffff021916908373ffffffffffffffffffffffffffffffffffffffff16021790555081805480610a3957610a38611368565b5b6001900381819060005260206000200160006101000a81549073ffffffffffffffffffffffffffffffffffffffff02191690559055610a80565b8080600101915050610903565b508273ffffffffffffffffffffffffffffffffffffffff163373ffffffffffffffffffffffffffffffffffffffff167fe7339343c6edff57f2d15278c419523844cea30ae5ee2146aa22cb9e3107dab760405160405180910390a3505050565b6000604051905090565b600080fd5b600080fd5b600080fd5b600080fd5b6000601f19601f8301169050919050565b7f4e487b7100000000000000000000000000000000000000000000000000000000600052604160045260246000fd5b610b4782610afe565b810181811067ffffffffffffffff82111715610b6657610b65610b0f565b5b80604052505050565b6000610b79610ae0565b9050610b858282610b3e565b919050565b600067ffffffffffffffff821115610ba557610ba4610b0f565b5b610bae82610afe565b9050602081019050919050565b82818337600083830152505050565b6000610bdd610bd884610b8a565b610b6f565b905082815260208101848484011115610bf957610bf8610af9565b5b610c04848285610bbb565b509392505050565b600082601f830112610c2157610c20610af4565b5b8135610c31848260208601610bca565b91505092915050565b600060208284031215610c5057610c4f610aea565b5b600082013567ffffffffffffffff811115610c6e57610c6d610aef565b5b610c7a84828501610c0c565b91505092915050565b600073ffffffffffffffffffffffffffffffffffffffff82169050919050565b6000610cae82610c83565b9050919050565b610cbe81610ca3565b8114610cc957600080fd5b50565b600081359050610cdb81610cb5565b92915050565b600060208284031215610cf757610cf6610aea565b5b6000610d0584828501610ccc565b91505092915050565b600081519050919050565b600082825260208201905092915050565b60005b83811015610d48578082015181840152602081019050610d2d565b60008484015250505050565b6000610d5f82610d0e565b610d698185610d19565b9350610d79818560208601610d2a565b610d8281610afe565b840191505092915050565b60006060820190508181036000830152610da78186610d54565b90508181036020830152610dbb8185610d54565b90508181036040830152610dcf8184610d54565b9050949350505050565b60008060408385031215610df057610def610aea565b5b600083013567ffffffffffffffff811115610e0e57610e0d610aef565b5b610e1a85828601610c0c565b925050602083013567ffffffffffffffff811115610e3b57610e3a610aef565b5b610e4785828601610c0c565b9150509250929050565b7f557365726e616d652063616e6e6f7420626520656d7074790000000000000000600082015250565b6000610e87601883610d19565b9150610e9282610e51565b602082019050919050565b60006020820190508181036000830152610eb681610e7a565b9050919050565b7f5573657220616c72656164792072656769737465726564000000000000000000600082015250565b6000610ef3601783610d19565b9150610efe82610ebd565b602082019050919050565b60006020820190508181036000830152610f2281610ee6565b9050919050565b7f4e487b7100000000000000000000000000000000000000000000000000000000600052602260045260246000fd5b60006002820490506001821680610f7057607f821691505b602082108103610f8357610f82610f29565b5b50919050565b60008190508160005260206000209050919050565b60006020601f8301049050919050565b600082821b905092915050565b600060088302610feb7fffffffffffffffffffffffffffffffffffffffffffffffffffffffffffffffff82610fae565b610ff58683610fae565b95508019841693508086168417925050509392505050565b6000819050919050565b6000819050919050565b600061103c6110376110328461100d565b611017565b61100d565b9050919050565b6000819050919050565b61105683611021565b61106a61106282611043565b848454610fbb565b825550505050565b600090565b61107f611072565b61108a81848461104d565b505050565b5b818110156110ae576110a3600082611077565b600181019050611090565b5050565b601f8211156110f3576110c481610f89565b6110cd84610f9e565b810160208510156110dc578190505b6110f06110e885610f9e565b83018261108f565b50505b505050565b600082821c905092915050565b6000611116600019846008026110f8565b1980831691505092915050565b600061112f8383611105565b9150826002028217905092915050565b61114882610d0e565b67ffffffffffffffff81111561116157611160610b0f565b5b61116b8254610f58565b6111768282856110b2565b600060209050601f8311600181146111a95760008415611197578287015190505b6111a18582611123565b865550611209565b601f1984166111b786610f89565b60005b828110156111df578489015182556001820191506020850194506020810190506111ba565b868310156111fc57848901516111f8601f891682611105565b8355505b6001600288020188555050505b505050505050565b6000602082019050818103600083015261122b8184610d54565b905092915050565b7f43616e6e6f7420666f6c6c6f7720796f757273656c6600000000000000000000600082015250565b6000611269601683610d19565b915061127482611233565b602082019050919050565b600060208201905081810360008301526112988161125c565b9050919050565b600060408201905081810360008301526112b98185610d54565b905081810360208301526112cd8184610d54565b90509392505050565b7f4e487b7100000000000000000000000000000000000000000000000000000000600052603260045260246000fd5b7f4e487b7100000000000000000000000000000000000000000000000000000000600052601160045260246000fd5b600061133f8261100d565b915061134a8361100d565b925082820390508181111561136257611361611305565b5b92915050565b7f4e487b7100000000000000000000000000000000000000000000000000000000600052603160045260246000fdfea2646970667358221220159c591acb28f521eaffcedfe7a5149de0b63434ae15751c5c9cd57b7d24139264736f6c63430008180033",
  "linkReferences": {},
  "deployedLinkReferences": {}
}