{
  "_format": "hh-sol-artifact-1",
  "contractName": "Post",
  "sourceName": "contracts/Post.sol",
  "abi": [
    {
      "anonymous": false,
      "inputs": [
        {
          "indexed": false,
          "internalType": "string",
          "name": "text",
          "type": "string"
        },
        {
          "indexed": false,
          "internalType": "string",
          "name": "image",
          "type": "string"
        }
      ],
      "name": "PostAdded",
      "type": "event"
    },
    {
      "inputs": [
        {
          "internalType": "string",
          "name": "_text",
          "type": "string"
        },
        {
          "internalType": "string",
          "name": "_image",
          "type": "string"
        }
      ],
      "name": "addPost",
      "outputs": [],
      "stateMutability": "nonpayable",
      "type": "function"
    },
    {
      "inputs": [
        {
          "internalType": "uint256",
          "name": "_index",
          "type": "uint256"
        }
      ],
      "name": "getPost",
      "outputs": [
        {
          "internalType": "string",
          "name": "text",
          "type": "string"
        },
        {
          "internalType": "string",
          "name": "image",
          "type": "string"
        }
      ],
      "stateMutability": "view",
      "type": "function"
    },
    {
      "inputs": [
        {
          "internalType": "uint256",
          "name": "",
          "type": "uint256"
        }
      ],
      "name": "posts",
      "outputs": [
        {
          "internalType": "string",
          "name": "text",
          "type": "string"
        },
        {
          "internalType": "string",
          "name": "image",
          "type": "string"
        }
      ],
      "stateMutability": "view",
      "type": "function"
    }
  ],
  "bytecode": "0x608060405234801561001057600080fd5b50610b02806100206000396000f3fe608060405234801561001057600080fd5b50600436106100415760003560e01c80630b1e7f831461004657806340731c2414610077578063b02c6516146100a8575b600080fd5b610060600480360381019061005b91906104b2565b6100c4565b60405161006e92919061056f565b60405180910390f35b610091600480360381019061008c91906104b2565b610208565b60405161009f92919061056f565b60405180910390f35b6100c260048036038101906100bd91906106db565b6103bd565b005b600081815481106100d457600080fd5b90600052602060002090600202016000915090508060000180546100f790610782565b80601f016020809104026020016040519081016040528092919081815260200182805461012390610782565b80156101705780601f1061014557610100808354040283529160200191610170565b820191906000526020600020905b81548152906001019060200180831161015357829003601f168201915b50505050509080600101805461018590610782565b80601f01602080910402602001604051908101604052809291908181526020018280546101b190610782565b80156101fe5780601f106101d3576101008083540402835291602001916101fe565b820191906000526020600020905b8154815290600101906020018083116101e157829003601f168201915b5050505050905082565b6060806000805490508310610252576040517f08c379a0000000000000000000000000000000000000000000000000000000008152600401610249906107ff565b60405180910390fd5b600083815481106102665761026561081f565b5b90600052602060002090600202016000016000848154811061028b5761028a61081f565b5b90600052602060002090600202016001018180546102a890610782565b80601f01602080910402602001604051908101604052809291908181526020018280546102d490610782565b80156103215780601f106102f657610100808354040283529160200191610321565b820191906000526020600020905b81548152906001019060200180831161030457829003601f168201915b5050505050915080805461033490610782565b80601f016020809104026020016040519081016040528092919081815260200182805461036090610782565b80156103ad5780601f10610382576101008083540402835291602001916103ad565b820191906000526020600020905b81548152906001019060200180831161039057829003601f168201915b5050505050905091509150915091565b60006040518060400160405280848152602001838152509080600181540180825580915050600190039060005260206000209060020201600090919091909150600082015181600001908161041291906109fa565b50602082015181600101908161042891906109fa565b5050507fdc395ae6e3255c321d6abc58ea009a1fa1810d549707fed233e987541a5f3f45828260405161045c92919061056f565b60405180910390a15050565b6000604051905090565b600080fd5b600080fd5b6000819050919050565b61048f8161047c565b811461049a57600080fd5b50565b6000813590506104ac81610486565b92915050565b6000602082840312156104c8576104c7610472565b5b60006104d68482850161049d565b91505092915050565b600081519050919050565b600082825260208201905092915050565b60005b838110156105195780820151818401526020810190506104fe565b60008484015250505050565b6000601f19601f8301169050919050565b6000610541826104df565b61054b81856104ea565b935061055b8185602086016104fb565b61056481610525565b840191505092915050565b600060408201905081810360008301526105898185610536565b9050818103602083015261059d8184610536565b90509392505050565b600080fd5b600080fd5b7f4e487b7100000000000000000000000000000000000000000000000000000000600052604160045260246000fd5b6105e882610525565b810181811067ffffffffffffffff82111715610607576106066105b0565b5b80604052505050565b600061061a610468565b905061062682826105df565b919050565b600067ffffffffffffffff821115610646576106456105b0565b5b61064f82610525565b9050602081019050919050565b82818337600083830152505050565b600061067e6106798461062b565b610610565b90508281526020810184848401111561069a576106996105ab565b5b6106a584828561065c565b509392505050565b600082601f8301126106c2576106c16105a6565b5b81356106d284826020860161066b565b91505092915050565b600080604083850312156106f2576106f1610472565b5b600083013567ffffffffffffffff8111156107105761070f610477565b5b61071c858286016106ad565b925050602083013567ffffffffffffffff81111561073d5761073c610477565b5b610749858286016106ad565b9150509250929050565b7f4e487b7100000000000000000000000000000000000000000000000000000000600052602260045260246000fd5b6000600282049050600182168061079a57607f821691505b6020821081036107ad576107ac610753565b5b50919050565b7f506f737420646f6573206e6f7420657869737400000000000000000000000000600082015250565b60006107e96013836104ea565b91506107f4826107b3565b602082019050919050565b60006020820190508181036000830152610818816107dc565b9050919050565b7f4e487b7100000000000000000000000000000000000000000000000000000000600052603260045260246000fd5b60008190508160005260206000209050919050565b60006020601f8301049050919050565b600082821b905092915050565b6000600883026108b07fffffffffffffffffffffffffffffffffffffffffffffffffffffffffffffffff82610873565b6108ba8683610873565b95508019841693508086168417925050509392505050565b6000819050919050565b60006108f76108f26108ed8461047c565b6108d2565b61047c565b9050919050565b6000819050919050565b610911836108dc565b61092561091d826108fe565b848454610880565b825550505050565b600090565b61093a61092d565b610945818484610908565b505050565b5b818110156109695761095e600082610932565b60018101905061094b565b5050565b601f8211156109ae5761097f8161084e565b61098884610863565b81016020851015610997578190505b6109ab6109a385610863565b83018261094a565b50505b505050565b600082821c905092915050565b60006109d1600019846008026109b3565b1980831691505092915050565b60006109ea83836109c0565b9150826002028217905092915050565b610a03826104df565b67ffffffffffffffff811115610a1c57610a1b6105b0565b5b610a268254610782565b610a3182828561096d565b600060209050601f831160018114610a645760008415610a52578287015190505b610a5c85826109de565b865550610ac4565b601f198416610a728661084e565b60005b82811015610a9a57848901518255600182019150602085019450602081019050610a75565b86831015610ab75784890151610ab3601f8916826109c0565b8355505b6001600288020188555050505b50505050505056fea26469706673582212204c9245c2531e06612020ee38851b21222da08e976bb4810dd6610ac89af6d75b64736f6c63430008180033",
  "linkReferences": {},
  "deployedLinkReferences": {}
}